:020000040800F2
:10000000B80800202D360008193500081B350008F7
:1000100000000000000000000000000000000000E0
:100020000000000000000000000000001F35000874
:100030000000000000000000213500082335000802
:10004000BF230008D3350008DF35000871360008EB
:1000500073360008753600087736000879360008D0
:100060007B3600087D3600087F36000881360008A0
:100070008336000885360008873600088936000870
:100080008B3600088D3600088F3600089136000840
:100090009336000895360008973600089936000810
:1000A0009B3600089D3600089F360008A1360008E0
:1000B000A3360008A53600082D35000825350008B0
:1000C00000B57B48006880218904014378480160BD
:1000D000784800688021C90201437648016075486C
:1000E000006880210903014372480160724800687A
:1000F00098490140704801606F480068A0210903D9
:1001000001436D48016094480068F02109030143F0
:1001100091480160914800688E4901408F48016014
:100120008F480068042101438D4801608C480068B5
:10013000402101438A4801608A4800688A49014099
:1001400088480160874800688021C90401438548C8
:1001500001608648008886490140844801808548BE
:1001600000688021090201438248016081480068DB
:100170000004FBD47F480068012101437D480160F1
:100180007D480068C007FBD57A4800680221884393
:100190007849086079487A49086076480068012102
:1001A00088437449086074480068C007FBD47548E8
:1001B0000068012101437348016073480068012110
:1001C00001437148016071480068012188436F490B
:1001D000086000206E4908606A4800680121884371
:1001E0006849086000BD00B562480068012101430C
:1001F0006048016060480068C007FBD55D48006842
:10020000022188435B49086000BD00B55948006879
:10021000012188435749086057480068C007FBD44C
:1002200000BD10B50400FFF7DEFFE4B2302C0FD0A4
:1002300036D3322C14D00FD3342C19D014D3362CFF
:100240001ED019D3382C23D01ED3392C24D027E02C
:1002500050484B49086026E04F484949086022E071
:100260004E48474908601EE04D48454908601AE07D
:100270004C484349086016E04B484149086012E089
:100280003E483F4908600EE048483D4908600AE0A2
:1002900047483B49086006E038483949086002E0B1
:1002A000364837490860FFF7B0FF012010BD000055
:1002B0001C100240141002400004004870B50400F5
:1002C000002500262078732801D0002041E0FFF7A8
:1002D0008AFFA07800F0A3FC0500607800F09FFC86
:1002E000000128430500207900F099FC0600E07821
:1002F00000F095FC00013043060000202049086012
:100300001F480068EDB2A904C02292040A400243CB
:100310001B4802601A480068EDB2A906890E014325
:100320001748016016480068F6B23104E022D20393
:100330000A4002431248026011480068F6B23104D4
:10034000F02212030A4002430D480260FFF75DFFEE
:10035000012070BDFFFFF0FF080400480C040048B6
:100360002404004800080048FFFFFFF31408004879
:10037000FFDF0000006400400464004005001C0032
:100380001C640040006600401C660040046600409B
:10039000406600402B011C0095001C003B001C0027
:1003A0001D001C0017001C000B001C0003001B009C
:1003B00002001C0010B501000022C5480068400181
:1003C00002D5002002000CE0C1480068000102D5FF
:1003D0000120020005E0BE480068C00001D50220EF
:1003E0000200D2B2032A00DB2AE10020B94BD2B2CC
:1003F000102454431851087A02282BD1B548D2B2A0
:1004000010235343C05804230343B248D2B21024EC
:1004100054430351AF48D2B210235343C0584B68E2
:100420001B04F82464031C400443AA48D2B21023DE
:100430005343C450A748D2B210235343C0584B680B
:10044000DB00A54C1C400443A248D2B21023534306
:10045000C45018E09F48D2B210235343C05804231D
:1004600098439C4BD2B21024544318519948D2B2AD
:1004700010235343C0580B685B0503439548D2B221
:10048000102454430351887C002830D09148D2B2C4
:1004900010235343C058022303438E48D2B2102482
:1004A0005443035100208B4BD2B2102454431B19E8
:1004B00058608848D2B210235343C01840684B7A22
:1004C0001B071B0F03438348D2B210245443001967
:1004D00043608048D2B210235343C05801230343E2
:1004E0007C48D2B21024544303510120A9E00020DB
:1004F000784BD2B2102454431B1998600020754BDE
:10050000D2B2102454431B19D8607248D2B21023BF
:100510005343C018C0684B7C1B0603436D48D2B2DE
:10052000102454430019C3606A48D2B210235343C5
:10053000C018C0680B7C1B0403436648D2B2102469
:1005400054430019C3606348D2B210235343C01808
:10055000C068CB7B1B0203435E48D2B210245443D5
:100560000019C3605B48D2B210235343C018C0685F
:100570008B7B03435748D2B2102454430019C36005
:100580005448D2B210235343C01880684B7B1B06DB
:1005900003435048D2B210245443001983604D489D
:1005A000D2B210235343C01880680B7B1B04034353
:1005B0004848D2B210245443001983604548D2B24F
:1005C00010235343C0188068CB7A1B020343414871
:1005D000D2B210245443001983603E48D2B2102393
:1005E0005343C01880688B7A03433A48D2B2102430
:1005F0005443001983600020364BD2B21024544378
:100600001B1958603348D2B210235343C0184068B6
:100610004B7A1B071B0F03432E48D2B210245443BE
:10062000001943602B48D2B210235343C058012312
:1006300003432848D2B2102454430351012000E060
:10064000002010BD38B50400200000F047F8AB488A
:100650000068400706D5A9480068C008606002200D
:10066000207203E0A5480068400D2060A3480068A0
:10067000800701D50120A074A14800680007000F81
:100680006072002005002800617AC0B2884217D24B
:10069000EDB2042D08DA9B48006808216943C84080
:1006A000EDB26119887209E097480068EDB208213F
:1006B00069432039C840EDB2611988726D1CE2E7C8
:1006C000924800682021014390480160012032BD1A
:1006D0000864004080650040F8FF000000B501009C
:1006E0000020487200204860002008600120087245
:1006F0000020887400200200D2B2082A05DA002007
:10070000D2B28B189872521CF6E7012000BDF8B5E2
:1007100006000F00012400252021380000F0A1FA76
:10072000307A022800D08AE0B07C01280AD178A073
:1007300000F0A6FA0200D2B275A1380000F0ABFAC0
:10074000040009E073A000F09BFA0200D2B271A18C
:10075000380000F0A0FA04007068000FC0B200F08A
:1007600052FAE4B23855641C7068000E0007000F9E
:1007700000F049FAE4B23855641C7068000D0007B7
:10078000000F00F040FAE4B23855641C7068000CA9
:100790000007000F00F037FAE4B23855641C7068A7
:1007A000000B0007000F00F02EFAE4B23855641C6D
:1007B0007068000A0007000F00F025FAE4B238550F
:1007C000641C706800090007000F00F01CFAE4B216
:1007D0003855641C30790007000F00F014FAE4B2B9
:1007E0003855641C707A00F00EFAE4B23855641C77
:1007F000B07C00281CD1002005002800717AC0B20E
:10080000884215D2EDB27019807AC0B2000900F0AA
:10081000FAF9E4B23855641CEDB27019807A000719
:10082000000F00F0F0F9E4B23855641C6D1CE4E7E9
:100830000D20E4B23855641C2000C0B25CE0B07CEE
:1008400001280AD134A000F01BFA0200D2B232A172
:10085000380000F020FA040008E030A000F010FAA0
:100860000200D2B22DA1380000F015FA3068000A5B
:100870004007400F00F0C7F9E4B23855641C3068F7
:1008800000090007000F00F0BEF9E4B23855641CFF
:1008900030780007000F00F0B6F9E4B23855641C58
:1008A000707A00F0B0F9E4B23855641CB07C0028CE
:1008B0001CD1002005002800717AC0B2884215D2F0
:1008C000EDB27019807AC0B2000900F09CF9E4B270
:1008D0003855641CEDB27019807A0007000F00F0E3
:1008E00092F9E4B23855641C6D1CE4E70D20E4B2C3
:1008F0003855641C2000C0B2F2BD0000B065004055
:10090000B4650040B8650040BC6500400C64004020
:10091000520000005400000072000000740000004B
:1009200070B505000C0000262800FFF7D7FE2078E0
:10093000522800D106E1542855D0722800D1DBE0BE
:10094000742800D05DE101202872E07800F067F99A
:100950002968C0B208432860A07800F060F92968CF
:10096000C0B20001F02202400A432A60607800F021
:1009700056F92968C0B20002E022D20002400A43C0
:100980002A60207900F04BF96872687A002806D155
:100990006079522803D10120A874012032E100209F
:1009A00006003000697AC0B288421AD2F6B202203C
:1009B00070432018407900F032F90001F6B2A9190D
:1009C0008872F6B2022070432018807900F027F96F
:1009D000F6B2A919897A0843F6B2A9198872761C69
:1009E000DFE701200EE102202872207A00F017F9DB
:1009F0006968C0B20007000F08436860E07900F042
:100A00000EF96968C0B20001F02202400A436A6030
:100A1000A07900F004F96968C0B20002F022120166
:100A200002400A436A60607900F0F9F86968C0B270
:100A30000003F022120202400A436A60207900F0AB
:100A4000EEF86968C0B20004F022120302400A43C3
:100A50006A60E07800F0E3F86968C0B20005F0224F
:100A6000120402400A436A60A07800F0D8F869686E
:100A7000C0B20006F022120502400A436A606078A4
:100A800000F0CDF86968C0B200078022520510401E
:100A900008436860607A00F0C2F86872687A0028DB
:100AA00006D1A07A522803D10120A8740120A9E020
:100AB000002006003000697AC0B288421AD2F6B22D
:100AC000022070432018807A00F0A9F80001F6B2E5
:100AD000A9198872F6B2022070432018C07A00F07B
:100AE0009EF8F6B2A919897A0843F6B2A919887254
:100AF000761CDFE7012085E0012028720120A87420
:100B0000E07800F08CF82968C0B208432860A0782B
:100B100000F085F82968C0B20001F02202400A43C3
:100B20002A60607800F07BF82968C0B20002E022F9
:100B3000D20002400A432A60207900F070F86872FF
:100B400001205FE0022028720120A874207A00F0C2
:100B500066F86968C0B20007000F08436860E07972
:100B600000F05DF86968C0B20001F02202400A435B
:100B70006A60A07900F053F86968C0B20002F02200
:100B8000120102400A436A60607900F048F869681F
:100B9000C0B20003F022120202400A436A602079C8
:100BA00000F03DF86968C0B20004F0221203024070
:100BB0000A436A60E07800F032F86968C0B2000564
:100BC000F022120402400A436A60A07800F027F87D
:100BD0006968C0B20006F022120502400A436A604A
:100BE000607800F01CF86968C0B2000780225205E6
:100BF000104008436860607A00F011F868720120C4
:100C000000E0002070BD00B50007000FC0B20A2848
:100C100002DB3730C0B201E03030C0B200BD00B5F9
:100C20000100C9B2302906DBC9B23A2903DA3039EA
:100C30000800C0B214E0C9B2612906DBC9B2672955
:100C400003DA57390800C0B20AE0C9B2412906DB0D
:100C5000C9B2472903DA37390800C0B200E0FF20E3
:100C600000BD10B500231A0013000C00DBB2E4B283
:100C7000A34204D20023D2B28354521CF4E710BD25
:100C800000B5010000200A78002A02D0491C401C4F
:100C9000F9E7C0B200BD30B5030000240020040015
:100CA00020001500C0B2EDB2A84205D2E4B2085D42
:100CB000E4B21855641CF3E7012030BD70B50400A0
:100CC0000E0000257078002820D0012828D00328A5
:100CD00021D005280BD0062804D0082811D00928D7
:100CE0000AD022E03100200000F000F921E03100BC
:100CF000200000F0A4F91CE03100200000F0C9F948
:100D000017E03100200000F023FA12E0310020004B
:100D100000F042FA0DE03100200000F05AFA08E03D
:100D20003100200000F068FA03E03100200000F0FC
:100D300097FA2800C0B270BD70B504000E000025FF
:100D4000A07803281AD1B088C0B2022811DA310085
:100D50002000AC225200A258926890470500F0880B
:100D600000280AD1EDB2002D07D1200000F0F9FAD9
:100D700003E03100200000F073FA03E031002000AE
:100D800000F06EFA2800C0B270BDF8B504000E0085
:100D9000002000900027B08805007078002864D0FB
:100DA000012832D0032800D09DE0A078022802D08C
:100DB00003280CD024E0EDB2002D07D0EDB2802D39
:100DC00004D02900C9B2200000F0FFFC1CE07088AC
:100DD00000280AD1EDB2002D07D0EDB2802D04D04D
:100DE0002900C9B2200000F0F0FC31002000AC2244
:100DF0005200A25892689047200000F0B2FA03E037
:100E00003100200000F02CFA6DE0A078022802D01A
:100E100003280CD024E0EDB2002D07D0EDB2802DD8
:100E200004D02900C9B2200000F0CFFC1CE070887B
:100E300000280AD1EDB2002D07D0EDB2802D04D0EC
:100E40002900C9B2200000F007FD31002000AC22CB
:100E50005200A25892689047200000F082FA03E006
:100E60003100200000F0FCF93DE0A078022802D01B
:100E700003280CD032E0EDB2002D07D0EDB2802D6A
:100E800004D02900C9B2200000F09FFC2AE0EDB296
:100E900028060ED5EDB26806400E282148432018DA
:100EA000807E002802D00120009011E000200090F8
:100EB0000EE028060CD4EDB2282068432018BA2191
:100EC000405C002802D00120009001E0002000904A
:100ED00002226946200000F0FAF903E03100200008
:100EE00000F0BEF9FFE73800C0B2F2BD70B582B0C5
:100EF00004000D00688880B2000AC0B2012808D042
:100F0000022816D0032821D006286ED0072871D0D9
:100F100075E06946E068C0B2B0225200A25812687B
:100F200090470600E888402802D1082069460880DA
:100F30006AE06946E068C0B2AC225200A258126A68
:100F400090470600B220400026505DE06888C0B29D
:100F5000002808D002281AD00FD304282BD020D381
:100F6000052832D03BE06946E068C0B2B0225200AA
:100F7000A25852689047060036E06946E068C0B261
:100F8000B0225200A2589268904706002CE06946B1
:100F9000E068C0B2B0225200A258D2689047060062
:100FA00022E06946E068C0B2B0225200A25812693D
:100FB0009047060018E06946E068C0B2B0225200CF
:100FC000A2585269904706000EE06946E068C0B238
:100FD000B0225200A25892699047060004E029000E
:100FE000200000F03DF929E00EE02900200000F08B
:100FF00037F923E02900200000F032F91EE0290033
:10100000200000F02DF919E068460088002815D06E
:10101000E888002812D068460088E988884204D20F
:10102000684600886946088002E0E88869460880CA
:10103000684602883100200000F049F973BD70B5A0
:1010400004000E00B08800281ED1F08800281BD1B3
:10105000B0784006400E0500A078032804D1310086
:10106000200000F0FDF813E02571EDB23648056070
:10107000200000F076F9EDB2002D02D00220A07021
:1010800006E00120A07003E03100200000F0E8F845
:1010900070BD38B504000D0068882C4908702B48D5
:1010A0000078022804DB2900200000F0D9F84AE08B
:1010B000A078022802D0032816D040E02348007808
:1010C00000280DD02148007820700320A0701F4810
:1010D0000178200000F075FD200000F042F902E0E8
:1010E000200000F03EF92EE01848007800280DD1CD
:1010F0000220A07015480078207014480178200064
:1011000000F071FD200000F02CF917E00F48007886
:10111000217888420FD02178200000F064FD0B4830
:101120000078207009480178200000F04AFD200076
:1011300000F017F902E0200000F013F903E02900A5
:10114000200000F08DF831BDE00B0020E80B0020FE
:1011500038B504000D0000200090E888012804D074
:101160002900200000F07CF815E0A078022802D0C9
:10117000032806D00BE001226946200000F0A7F802
:1011800009E001222100200000F0A1F803E029007D
:10119000200000F065F831BD38B504000D000020D6
:1011A0000090A078801E01280ED801200090A06831
:1011B000002803D0009802210143009102226946D1
:1011C000200000F084F803E02900200000F048F837
:1011D00031BD38B505000C00608801280BD1012015
:1011E000A86021002800AC225200AA5892689047BB
:1011F000280000F0B6F831BD38B505000C00A8781D
:10120000801E01280FD8608801280BD10020A8601B
:1012100021002800AC225200AA589268904728006A
:1012200000F09FF803E02100280000F019F831BD1C
:10123000027C0A70427C4A70827CC37C1B02D218FA
:101240004A80027D437D1B02D2188A80827DC37D45
:101250001B02D218CA80CA88C2630122427070473A
:1012600038B504000D000021200000F0AEFA31BDB9
:10127000F8B504000D0017000026002C1BD020003C
:1012800000F01AF802214843801C38803888F6B2F2
:10129000A855761C0320F6B2A855761C20780028A5
:1012A00009D02078F6B2A855641C761C0020F6B24E
:1012B000A855761CF2E7F1BD00B5010000200A78C0
:1012C000002A02D0401C491CF9E7C0B200BDF8B5A5
:1012D00005000F0014000026A4B2AC63A4B26C6336
:1012E00002206870A4B223003A000021280000F018
:1012F00015FA3000C0B2F2BDF8B507000E001400B8
:101300000025A4B2230032000021380000F006FAC4
:101310002800C0B2F2BDF8B505000F001400002689
:10132000A4B2D8202C50A4B2D4202C500320687032
:1013300023009BB23A000021280000F0B5F93000EC
:10134000C0B2F2BDF8B507000E001400002523005E
:101350009BB232000021380000F0A6F92800C0B28C
:10136000F2BD38B505000024042068700023002277
:101370000021280000F0D2F92000C0B232BD38B5FB
:1013800005000024052068700023002200212800A9
:1013900000F08AF92000C0B232BDF8B401684218EA
:1013A00043685908511800918168DB0701D54B4605
:1013B000C918009B9A4202D10C30F2BC70471378D6
:1013C000521C032403261E4002D11678F61C521C20
:1013D0001D090F2D07D115780F35521C03E0177822
:1013E000521C0F70491C761EF9D1002DE1D01678E1
:1013F000521C9B081C40032C01D11478521C230260
:10140000F3185C420B19AD1CD3D01C785B1C0C701C
:10141000491C6D1ECDD0F8E710B504000120A07066
:10142000002020710020A0600120E060012000F079
:10143000E7FB002000F0E4FB002000F0E5FB0020CB
:1014400000F0E6FBBF200002034908600248006884
:1014500080B200F0D5FB10BDB80B002070B50400C1
:1014600089B2080608D589B24806400E282670437E
:1014700020181830050007E089B24806400E2826DB
:1014800070432018B830050092B2002A04D1002021
:10149000A8721800A88006E00120A8721800E88051
:1014A0001800000C2881002070BDF8B506000D0062
:1014B0001700ADB228060AD5ADB26806400E282145
:1014C00048433018183004000120607009E0ADB2C4
:1014D0006806400E282148433018B8300400002028
:1014E0006070BFB2E76068460078E0702800400690
:1014F000400E20702078002805D100206062002076
:10150000E061002020620020206100206061002056
:10151000A0610020A070E078002805D0022809D042
:1015200013D303280BD015E080218900207800F028
:101530007BFB0FE00021207800F076FB0AE0C02161
:10154000C900207800F070FB04E08021C9002078F9
:1015500000F06AFBA07A002820D1607800280BD028
:10156000A188207800F01CFC207800F002FC2021EB
:10157000207800F06AFB40E0A188207800F024FC8D
:10158000E16889B2207800F039FC207800F0DAFBBD
:10159000C0218901207800F074FB2EE0207800F053
:1015A0008EFB2289E188207800F068FC60780028B2
:1015B00012D1207800F0C6FB207800F0DAFB20780A
:1015C00000F0B0FBC0218901207800F05AFB002117
:1015D000207800F03AFB10E0207800F0B3FB207890
:1015E00000F0C7FB207800F089FB0021207800F094
:1015F0002CFB0021207800F044FB0020F2BD70B5E8
:1016000006000C00E4B2200608D5E4B26006400EE5
:101610002821484330181830050007E0E4B260067E
:10162000400E282148433018B8300500A87A002819
:1016300012D16878002807D0287800F09AFB0021A2
:10164000287800F002FB2DE0287800F07BFB0021D9
:10165000287800F016FB25E06878002811D128785A
:1016600000F070FB287800F084FB287800F05AFB2B
:101670000021287800F005FB0021287800F0E5FA29
:1016800010E0287800F05EFB287800F072FB2878E4
:1016900000F034FB0021287800F0D7FA00212878E8
:1016A00000F0EFFA002070BDF8B582B007000E0020
:1016B000150000200090F6B27006400E2821484325
:1016C0003818B83004002561684600896061002040
:1016D000A061E0686169884206D2E06800906069B4
:1016E0000099401A606103E0606900900020606129
:1016F000A07A002805D1009989B2207800F07EFBFD
:1017000005E0009A92B26178207800F0DFFBC021FA
:101710008901207800F0B5FA0020FEBDF9B581B04E
:101720000E001700002000900198F6B27106490ED5
:10173000282251434018183004007006400E2070D3
:101740002761029860610020A061E06861698842B9
:1017500006D2E068009060690099401A606103E079
:101760006069009000206061A07A00280BD1009A87
:1017700092B2A188206900F05CFC009989B22078BF
:1017800000F031FB1BE00025009A92B261782078CE
:1017900000F09CFB207800F040FA400602D520893A
:1017A000050001E0E0880500009A92B2290089B2A4
:1017B000206900F03EFC6178207800F015FC3021B3
:1017C000207800F042FA0020FEBD70B506000C0043
:1017D000E4B2200608D5E4B26006400E2821484352
:1017E00030181830050005E0E4B2282060433018B6
:1017F000B8300500287800281BD144492A780423F2
:101800005A43895889B2424A0A4010000100802098
:101810004001484001001020484080B23D4901434A
:101820003A482A7804235A4381500120A8700020A6
:1018300011E06878002806D00120A87010212878CF
:1018400000F003FA06E00120A87080214901287801
:1018500000F017FA002070BD70B506000C00E4B26D
:10186000200608D5E4B26006400E2821484330180F
:101870001830050005E0E4B2282060433018B83085
:1018800005006878002809D0287800F072FA302125
:10189000287800F0DAF90020A87009E0287800F034
:1018A00051FAC0218901287800F0EBF90020A870D6
:1018B000002070BD70B50022017100231A00042AB7
:1018C00014D2124B1400E4B204256C431B59124C81
:1018D0001C401300DBB223430E4C1C430B4B150082
:1018E000EDB2042675435C51521CE8E7C9B280236F
:1018F0000B430A4C236070BD09490968802212021B
:101900000A4307490A60012181707047005C00406A
:10191000BFBF0000808000008F8F00004C5C004043
:10192000585C0040F8B504000F0015001E002000B0
:1019300000F009FC200000F01AF8AC20400025500F
:10194000AE2040002650B0204000275000F083FC1D
:101950002000FFF761FDAE2040002058006880475E
:10196000200000F006FC2000FFF7C6FFF1BD0100DB
:10197000002070471CB5040069462000FFF758FCA2
:1019800068460078C006C00EC0B2002803D0022806
:101990000BD005D30EE069462000FFF78FF910E069
:1019A00069462000FFF7C8F90BE069462000FFF701
:1019B000ECF906E068460178802001402000FFF73E
:1019C00004FF002016BD70B504000E00F6B2002E14
:1019D0002DD12000B83005006078032838D1E868A0
:1019E000E969884210D2E869E968401AE861E86963
:1019F000E968884201D2EA6900E0EA6892B229699E
:101A00002000FFF79FFC23E0AC2040002058006935
:101A1000002808D0A078032805D12000AC21490077
:101A20006158096988472000FFF79BFC10E0AC2053
:101A300040002058806900280AD0A078032807D1E8
:101A40003100C9B22000AC225200A25892699047DE
:101A5000002070BD70B504000E00F6B2002E4ED10D
:101A60002000183005006078022837D1E868E9695D
:101A700088420AD2E869E968401AE861EA6992B2E4
:101A800029692000FFF738FC4AE0286AE96800F07D
:101A900039FC00290FD1286AE96888420BD3286AEB
:101AA000696A884207D2002200212000FFF724FC47
:101AB0000020686234E0AC2040002058C068002854
:101AC00008D0A078032805D12000AC214900615836
:101AD000C96888472000FFF752FC21E0607804289D
:101AE0001ED11048006800281AD00E480168C9B2FB
:101AF0002000FFF7DFFE00200A49086010E0AC205C
:101B000040002058406900280AD0A078032807D157
:101B10003100C9B22000AC225200A258526990474D
:101B2000002070BDE00B002010B50400402300220F
:101B300000212000FFF792FC80230022802120005A
:101B4000FFF78CFC0023402200212000FFF7ADFCB2
:101B50000023402280212000FFF7A7FC0120A07075
:101B6000E068C0B2AE21490061584968884700204A
:101B700010BD10B50400AE20400020580069804719
:101B8000E078A070002010BD10B50400A078E070CF
:101B90000420A070AE2040002058C068804700207C
:101BA00010BD10B50400AC2040002058C0690028CA
:101BB00005D02000AC2149006158C9698847002040
:101BC00010BD38B505000C002100C9B22800AC22B8
:101BD0005200AA5812689047AE20400028588068EA
:101BE0008047002032BD38B505000C002100C9B285
:101BF0002800AC225200AA5852689047002032BDFB
:101C000080B238490860704780B238490860704730
:101C100033490140374A116070474049C0B204223D
:101C20005043085880B2704710B43C4AC0B20423F5
:101C30004343D2582C4B13400B439BB2374AC0B29C
:101C400004244443135110BC704710B5334BC0B249
:101C5000042444431B59264C1C402200CB0602D5C9
:101C6000130010225A408B0602D5130020225A403E
:101C7000214B13439BB2294AC0B20424444313515D
:101C800010BD10B5254BC0B2042444431B59244C4D
:101C90001C402200CB0403D51300802252015A407D
:101CA0008B0403D51300802292015A40124B134338
:101CB0009BB21A4AC0B204244443135110BD1749C1
:101CC000C0B20422424389583D4A0A403D4911436B
:101CD00089B2124AC0B204234343D1507047000076
:101CE000F8FF0000405C00408F890000445C004029
:101CF000BF8F0000505C0040808000000749C0B2E8
:101D00000422424389582E4A0A406C491143034A2F
:101D1000C0B204234343D15070470000005C004030
:101D20008FBF00006749C0B2042242438958244A49
:101D30000A4063491143634AC0B204234343D1506C
:101D40007047000000B55F49C0B204224243895881
:101D500049040DD55B49C0B2042242438958184A50
:101D60000A4056491143574AC0B204234343D15055
:101D700000BD00B55349C0B2042242438958490608
:101D80000DD55049C0B20422424389580C4A0A403A
:101D90004B4911434B4AC0B204234343D15000BDC9
:101DA000494A126892B2C0B208234343D2187C4B0E
:101DB000D2180B009BB25B085B00138070470000D9
:101DC0008F8F0000808100003F4A126892B2C0B23B
:101DD00008234343D218734BD2180B009BB25B0805
:101DE0005B0013807047384A126892B2C0B2082371
:101DF0004343D2186C4BD2181180704710B5324B48
:101E00001B689BB2C0B2082444431B196E4C1B19BB
:101E10001A0089B23F290CDB0C00A4B2640923002C
:101E2000CC0600D15B1E9B02802424021C4314803C
:101E300008E00C00A4B264082300CC0700D55B1CAA
:101E40009B02138010BD2049096889B2C0B20822E4
:101E5000504308185449401800888005800D704789
:101E60001949096889B2C0B2082250430818564976
:101E7000401800888005800D7047000010B4124B98
:101E80001B689BB2C0B2082444431B19444C1B1965
:101E90000C00A4B2640864001C800B4B1B689BB24E
:101EA000C0B2082444431B193E4C1B191400A4B2B1
:101EB000640864001C8010BC7047000080C00000F3
:101EC000C0800000005C0040505C004030B5C9B2EA
:101ED000002923D1654C2468A4B2C0B2082545432B
:101EE0006419314D6419230092B23F2A0CDB1500AE
:101EF000ADB26D092C00D50600D1641EA402802568
:101F00002D0225431D8016E01500ADB26D082C0092
:101F1000D50700D5641CA4021C800CE0C9B20129BD
:101F200009D1524B1B689BB2C0B2082444431B1911
:101F30001D4C1B191A80C9B2002923D14B4C2468AF
:101F4000A4B2C0B2082545436419544D6419230056
:101F500092B23F2A0CDB1500ADB26D092C00D506FC
:101F600000D1641EA40280252D0225431D8016E0A9
:101F70001500ADB26D082C00D50700D5641CA40275
:101F80001C800CE0C9B2012909D1384B1B689BB2F7
:101F9000C0B2082444431B19404C1B191A8030BDA1
:101FA0000060004004600040026000402F49096862
:101FB00089B2C0B20822504308182D494018008841
:101FC0008005800D704700000660004027490968C1
:101FD00089B2C0B20822504308183049401800881E
:101FE0008005800D7047000010B5C9B200290ED1E0
:101FF0002B4AC0B204234343D2582A4B13402A4AE7
:102000001A43274BC0B2042444431A5110E0C9B20A
:1020100001290DD1224AC0B204234343D258214B97
:102020001340224A1A431E4BC0B2042444431A519F
:1020300010BDF3B592B21100491C491000916E46D3
:10204000B6881B4FF6193500009E310000290BD0D1
:1020500006783300401C067836021E4334002C807C
:10206000AD1C401C491EF1E7F3BD0000505C004070
:102070000260004070B592B213005B1C5B1089B225
:102080000B4E8E1935001C00002C06D02E880680C1
:10209000AD1C401C401C641EF6E770BD066000408D
:1020A000005C00408F8F0000C080000080C00000F6
:1020B000006000400121C206D20E9140424A1160E8
:1020C0007047F0B540B2002821D5404C40B202071D
:1020D000120F083A9508042255433C4A40B20307C0
:1020E0001B0F083B9B0804267343D258FF23860727
:1020F000B60F08277E43B3409A438B01DBB28607B5
:10210000B60F08277E43B340134363511AE0304AA9
:1021100040B2830804246343D258FF238407A40FEA
:1021200008256C43A3409A438B01DBB28407A40FBC
:1021300008256C43A3401343254A40B28408042574
:102140006C431351F0BD10B5040022480068802193
:10215000090401431F4801601F480068802188432B
:102160001D4908601C4800681B49086000F00BF816
:1021700010BD10B504001F20FFF79CFF01211F2098
:10218000FFF79FFF10BD1348006880210905014338
:102190001048016011480068114901400F48016072
:1021A0000E4800688021890501430C4801600D48F4
:1021B0000068402101430B4801600A480068202163
:1021C000014308480160704700E100E01CED00E0B9
:1021D00000E400E01C10024030100240046C00409B
:1021E000FFFFFFCF006C004002001220088026484D
:1021F00070470200042008802448704738B5040066
:102200000D002A0022492348FFF732F8204832BD4A
:1022100038B504000D002A001D491F48FFF728F8B3
:102220001B4832BD02001A2008801C48704738B590
:1022300004000D002A0016491948FFF719F8144840
:1022400032BD38B504000D002A0011491548FFF7CA
:102250000FF80F4832BD70B51348006804001348EA
:10226000006806001248006805006419002C09D0B7
:1022700008221049200000F021F804220E49300005
:1022800000F01CF870BD0000083600086C3600082D
:10229000600B002068350008F43500088400002039
:1022A0003C3600081C360008ACF7FF1FB0F7FF1FD4
:1022B000B4F7FF1F860000209600002030B50023F1
:1022C000002423001C001500E4B2EDB2AC4218D289
:1022D000040F0A2C06D2040F3034DBB202255D4312
:1022E0004C5505E0040F3734DBB202255D434C55F5
:1022F00000010024DBB202255D434D196C705B1CAC
:10230000E0E730BD0022030A8B420BD203098B4267
:1023100019D243088B422ED2411A00D201465241B3
:1023200010467047FF2209023FD012068B4205D3A8
:10233000121209028B4201D31212090203098B42C5
:1023400019D300E0090AC3098B4201D3CB01C01A9B
:10235000524183098B4201D38B01C01A5241430978
:102360008B4201D34B01C01A524103098B4201D366
:102370000B01C01A5241C3088B4201D3CB00C01AD3
:10238000524183088B4201D38B00C01A524143084B
:102390008B4201D34B00C01A5241884200D3401AED
:1023A0005241CFD201461046704708B500F006F8FA
:1023B00008BD704770477047704770477047FEE729
:1023C00070B582B00025002069460880BC480068CE
:1023D00069464880000400D470E1684640880007E0
:1023E000000F0600F6B2002E00D090E0684640884C
:1023F000C00617D4B348006880B2B3490140B14861
:102400000160B24804002078FFF71DFDA06120693B
:10241000A169401820610021AD48AE4A1268526897
:102420009047D3E7AC480400A64800686946088096
:1024300068460088000515D52078FFF711FDA061DA
:10244000A26992B2A188A548FFF714FE9D480068D2
:10245000A34901409B4801609D489E4909688968DD
:102460008847B3E7684600880004AFD59548006800
:102470009B490140934801602078FFF7F1FCA0617F
:10248000A069002809D0A26992B2A1882069FFF74B
:10249000F1FD2069A1694018206100218C488D4A16
:1024A0001268126890478F49096889B28E4A891864
:1024B0000800E2683F2A0ED3E26852091100227B2D
:1024C000D206D20E002A00D1491E890280221202B1
:1024D0000A43028008E0E26852081100227BD2071A
:1024E00000D5491C89020180764909687F4A0A4063
:1024F0001000010080204001484001008020800140
:1025000048407B49014389B26E4801605EE76D48EF
:10251000F6B2042171434058694608806846008835
:10252000000464D56748F6B20421714340586C49F1
:1025300001406448F6B20422724381506448F6B206
:10254000282171434018B8300400A07A00280DD12A
:102550002078FFF785FC0500ADB2002D2AD02A00B7
:1025600092B2A1882069FFF785FD23E02078FFF76C
:1025700054FB40040DD52078FFF718FD0500ADB2DF
:10258000002D13D02A0092B2E1882069FFF772FD76
:102590000CE02078FFF71AFD0500ADB2002D05D044
:1025A0002A0092B221892069FFF764FD002120787A
:1025B000FFF71AFDA069ADB24019A0612069ADB264
:1025C000401920616069002803D0ADB2E0688542FF
:1025D00006D221783E483F4A12681268904706E0CA
:1025E00063699BB2226921783948FFF75DF8684634
:1025F0000088000600D4E9E63548F6B22821714388
:102600004018183004002F48F6B204217143405896
:1026100080B22D4901402B48F6B20422724381500A
:10262000A07A00280DD12078FFF70DFCA061A069E9
:1026300000282AD0A26992B2A1882069FFF7F9FC8C
:1026400023E02078FFF7E9FA40060DD52078FFF760
:10265000ADFCA061A069002813D0A26992B2E18804
:102660002069FFF7E6FC0CE02078FFF7AFFCA061E3
:10267000A069002805D0A26992B221892069FFF7DC
:10268000D8FC01212078FFF7AFFC2078FFF7DBFBB7
:10269000A0612069A169401820616069002806D105
:1026A00021780B480B4A1268526890478EE663699E
:1026B000226921780648FFF731F887E673BD0000EC
:1026C000445C0040005C00400F8F0000D0080020F8
:1026D000B80800206400002070090020C80800200D
:1026E0008F0F0000505C0040066000408FBF00006C
:1026F0008080000080B50020694608803F4800685F
:1027000069460880684600888021090201403C48EB
:10271000006889B2014201D0FFF752FE6846008886
:102720008021C90001403648006889B201420BD0BF
:10273000344832490860344834490968096988478F
:1027400000213148FFF7B6F86846008880218901EA
:1027500001402B48006889B2014202D02C48274929
:1027600008606846008880214901014024480068CB
:1027700089B201420AD027482049086022482349EB
:10278000096889698847002000F06DF8684600886C
:102790008021090101401A48006889B2014209D02C
:1027A0001D4816490860184818490968496988474A
:1027B00000F038F868460088802189000140104800
:1027C000006889B2014207D014480C4908600E48DD
:1027D0000E490968C9688847684600888021490011
:1027E00001400748006889B2014205D00C480349FE
:1027F0000860072000F037F801BD0000445C00408D
:10280000B80B0020FFFB0000B80800206400002087
:10281000FFDF0000FFEF0000FFF70000FFFD0000FA
:10282000FFFE00004649096808000100082008432F
:1028300080B2434908604249096808000100042049
:10284000084380B23E49086070473D490968080066
:1028500001003C48084080B239490860BF210902A4
:10286000374A1160704738B50400E4B2072C01D034
:102870003548047034480078002808D002281DD05C
:1028800013D304282ED020D305283BD053E02F4863
:102890000068002805D1FFF7D8FF06202A490870F4
:1028A00002E005202849087048E0FFF7CEFF042029
:1028B000254908700120254908603FE0022022498F
:1028C000487003202049087038E01F484078401EB7
:1028D0001D4948701C484078002802D104201A493C
:1028E00008702BE0164800680500280010250543F5
:1028F000ADB2134805600520134908700A2012493B
:1029000048701BE010484078401E0F4948700E4840
:10291000407800280ED10A480068050028000C4DB8
:102920000540ADB206480560062007490870002042
:102930000649086002E006200349087031BD000026
:10294000405C0040FBFF0000D80B0020DC0B0020A7
:10295000EFFF000038B504000D00C02300228121E4
:102960002000FEF77BFD80235B00002282212000F7
:10297000FEF774FD88235B00002203212000FEF790
:102980006DFD0223402281212000FEF78EFD0223EF
:10299000402203212000FEF788FD03230822822124
:1029A0002000FEF782FD8D48006880474023C44A1E
:1029B00003212000FEF778FE002032BD38B5040068
:1029C0000D0081212000FEF71AFE03212000FEF7F2
:1029D00016FE82212000FEF712FE804840688047E4
:1029E000002032BDF8B506000C003A257C4F207857
:1029F00060210140C9B200292DD0202925D1E088CD
:102A000000281AD0207800060BD5E2887549607836
:102A1000724B9B689847E28872493000FEF757FC7A
:102A200011E0607870490860E088A6490860E28893
:102A30006C493000FEF76FFC05E000220021607851
:102A4000664B9B689847002036E021003000FEF777
:102A500007FC022030E06078062804D00A2817D04E
:102A60000B281BD027E0608880B2000A80B22128A2
:102A700007D198480700E0883B2801DB3A2500E0B1
:102A8000E5882A0092B239003000FEF720FC12E0FF
:102A9000012291493000FEF71AFC0CE06088C0B2B8
:102AA000002804D16088C0B28B49086003E021008F
:102AB0003000FEF7D5FB0020F2BD10B504004A48F7
:102AC0000068FF280AD07F480268464946480068E7
:102AD000424B9B689847FF2043490860002010BD87
:102AE000F8B504000D007D480078012849D17C48E4
:102AF0000068002811D17B480068012809D1002016
:102B0000784908600023002281212000FEF706FE9C
:102B100037E000207149087033E0714800684128AF
:102B20000FD3714800680700402006006E48006817
:102B300040306D4908606A4800684038684908605C
:102B400016E06948006807006548006806006648A6
:102B500000686349096840186349086000206049BB
:102B600008605F480068402802D101205D49086084
:102B7000B6B233005D48BFB2C21981212000FEF712
:102B8000CDFD0020F2BD70B504000D00EDB228208F
:102B900068432018D02140580600B6B2310048489A
:102BA0000E4A126990474023454A03212000FEF750
:102BB0007BFD002070BD10B504004D480068010089
:102BC000491C4B4A1160052805D10020484908607E
:102BD000200000F00BF8002010BD000034000020A1
:102BE000A1340008B00B00200000002070B50400E4
:102BF0003A480078012861D03B480068402802D15B
:102C0000002039490860384800683A490968884214
:102C100003D100203149087050E03648006832493D
:102C20000968884206D240202F490968401A2C4979
:102C3000086006E02F4800682B490968401A2849B7
:102C400008602748006841280FD32748006806001D
:102C5000402005002448006840302349086020488F
:102C6000006840381E4908601CE01F4800680600E4
:102C70001B48006805001C4800681949096840188D
:102C800019490860002016490860ADB2402D02D1F4
:102C900001201449086017480068402802D100202C
:102CA0001449086001200D490870ADB22B000F488F
:102CB000B6B2821981212000FEF730FD70BD000000
:102CC000C00A0020D00B00200200432008800A48E0
:102CD00070470000AA340008BC0B0020E70B00205E
:102CE000CC0B0020C00B0020C80B0020000B0020E4
:102CF000D40B0020C40B002098340008002070473B
:102D00000020704770B504000D0016002000002858
:102D100010D001280FD002280ED003280DD004288F
:102D20000CD020280BD0212822D0222839D02328CB
:102D300038D038E037E036E035E034E033E028786A
:102D4000697809020143A87800040843E978090674
:102D50000143844801602879824908716879814972
:102D60004871A8797F498871002000F023F91AE0A2
:102D70007C48006828707B480068000A68707948C1
:102D80000068000CA87077480068000EE87075486D
:102D90000079287173484079687172488079A87108
:102DA00001E000E0FFE7002070BD30B50200002028
:102DB00003008B4212D2D05C6B4C6C4D2D68605579
:102DC0006A480068401C694C2060684800684028D8
:102DD00002D10020654C20605B1CEAE7002030BD7A
:102DE00038B504000D00207843283CD04C287DD015
:102DF0004E284CD04F281CD0522800D192E05328A6
:102E00004AD0542858D0562809D0722800D196E0CC
:102E1000732849D074285CD0762805D09CE0062120
:102E20005348FFF7C2FF9BE006215248FFF7BDFF62
:102E300096E05149514800F0C0F80120504908700F
:102E4000504800688021C90201434E4801604D4846
:102E500000688021090301434A48016002214AA019
:102E6000FFF7A3FF7CE00020454908704548006853
:102E7000042101434348016042480068082101439E
:102E800040480160022141A0FFF78FFF68E0062162
:102E90003F48FFF78AFF63E06078FDF7C2F902213F
:102EA0003CA0FFF782FF5BE02000FDF707FA02215C
:102EB00039A0FFF77AFF53E021003848FDF730FDD5
:102EC00036492E4800F096F8012135A0FFF76DFF36
:102ED00046E021003148FDF723FD3049274800F046
:102EE00089F801212EA0FFF760FF39E0224923482D
:102EF00000F063F801202249087000202949087079
:102F0000204800688021C90201431E4801601D4815
:102F10000068082101431B480160022122A0FFF73D
:102F200044FF1DE021001D48FDF7FAFC1B49134832
:102F300000F060F802211DA0FFF737FF10E021002C
:102F40001648FDF7EDFC15490C4800F053F8022136
:102F500017A0FFF72AFF03E0012111A0FFF725FFCB
:102F6000002032BD28000020000B0020C40B0020F0
:102F7000543600085C360008200A0020A80B002008
:102F8000E40B0020180000484F0D0000430D000026
:102F900064360008530D0000730D0000800B002004
:102FA0000D000000B40000204C0D0000520D000088
:102FB000720D000001000020704770B586B005005A
:102FC0000E0000246846FDF789FB2E6000200400F7
:102FD000E4B2082C0ADA2868E4B2142161434018EC
:102FE0006946142200F046F8641CF1E700202871BD
:102FF00006B070BD38B504000D0020682179142298
:10300000514340182900142200F034F82079401C64
:1030100020712079082801D10020207131BD30B500
:1030200085B004000D00287908281ADA6846296856
:103030002A7914235A438918142200F01BF828799E
:10304000401E28712879092801DB072028712000FB
:1030500029682A7914235A438918142200F00AF89F
:1030600006E00720287120006946142200F002F8CB
:1030700005B030BD70B4103A03D378C9103A78C0A7
:10308000FBD2530701D318C918C001D508C908C01D
:10309000D20704D30B880380891C801C002A01D529
:1030A0000B78037070BC704700B585B000F010F964
:1030B000724B734A73497448FEF734FC00F0C0F851
:1030C000FCF7FEFF00F0B4F98020C0050088012164
:1030D00001438020C005018000F0C2F90028FBD028
:1030E00062B66A4800680421014368480160674885
:1030F000006808210143654801606548007801289F
:10310000FBD1644800688007800F002817D0624810
:10311000FDF798FA61496048FDF7F9FA5F48FDF755
:10312000AFFDC0B201005D485D4A12689047802043
:10313000C0050088C00702D401205A4908705A48C7
:103140000079002822D058496846FFF768FF5748A1
:1031500069461422FFF78EFF55480078002811D0E9
:103160005248FDF727F9002803D150494E48FFF790
:1031700041FF8020C0050088C00707D401204D49C9
:10318000087003E049494848FFF734FF4548007894
:10319000002803D14748007800282AD04148007809
:1031A000002808D000203F490870384800680421F2
:1031B0000143364801603F480078002808D00020CD
:1031C0003C49087031480068082101432F480160DC
:1031D0003948008839490140374801800020384982
:1031E00008608020C0050088012101438020C005BF
:1031F000018031480088C00700D47EE78020C005E8
:1032000000882E4901408020C00501802A4800889E
:103210002A490140284801801C4800688021C902D1
:1032200001431A48016022480078002800D164E771
:1032300016480068802109030143144801605CE7D7
:10324000204800688021890201431E4801609020C7
:10325000C0050068F02188439021C90508609020CE
:10326000C0050068502101439020C0050160164848
:10327000008816490140144801807047A0000020D2
:103280000400002068000020B80800201800004852
:10329000E40B00200C640040940B0020400B002045
:1032A00030000020E50B0020A80B0020800B002040
:1032B000B4000020E60B002010000040FEFF0000DC
:1032C000240000401410024014000048F3FF0000E6
:1032D00080B54A48006801210143484801604848D8
:1032E0000068484901404648016044480068464932
:1032F00001404248016041480068444901403F485C
:1033000001603F480068424901403D480160414832
:1033100000680F2188433F4908603F4800683F49E3
:1033200001403D4801603E480068012188433C4916
:10333000086000203B49086000F001F801BDC0B5FD
:1033400000200190002000902C4800688021490254
:1033500001432A4801602948006880218902084009
:1033600000900198401C01900098002804D1019819
:10337000A021C9018842EED120480068800302D50F
:103380000120009001E0002000900098012834D135
:103390001120254908601A48006819490860184832
:1033A0000068174908601648006820490140144821
:1033B00001601348006888214903014310480160F7
:1033C0000E4800688021490401430C4801600B4805
:1033D00000688001FBD50A4800680321884308493A
:1033E000086007480068022101430548016004485D
:1033F00000680C2101400829F9D103BD00100240EA
:10340000041002400CB8FFF8FFFFF6FEFFFFFBFFC1
:10341000FFFFC0FF2C10024030100240ACFEFFFF47
:10342000341002400810024000200240FF7FC0FF1D
:1034300013480068012101431148016080204000C9
:103440001049088010481149086080208021C90572
:1034500008800F4800880F4901400D4801807047DF
:1034600000B50B480088C00707D5094800880949FE
:10347000014007480180012000E0002000BD00005D
:103480001C100240280000403E4900002C00004073
:1034900010000040FEFF000009024300020100C0CE
:1034A0003209040000010202010005240010010598
:1034B00024010001042402020524060001070582FC
:1034C0000308001009040100020A000000070503B8
:1034D00002400000070581024000000070B4012195
:1034E000002213E00468001D0C4202D04D466D1E00
:1034F00064192260241D1B1F042BFAD225009E078D
:1035000001D52280AD1C0B4000D02A700368001D3D
:10351000002BE7D170BC7047704700B5FEE77047DD
:103520007047704780B5FFF7E5F801BD0348008894
:103530004021014301480180704700001400004809
:1035400010B5074979441831064C7C44163404E020
:10355000081D0A68891888470100A142F8D110BDEA
:103560002C0000004800000053544D3332205669AF
:10357000727475616C20436F6D506F727420696E48
:10358000204653204D6F64650000000051FFFFFF8F
:1035900034030000B808002000000000FFDDFFFF3A
:1035A000060100001C0100000000002000F00BF8E4
:1035B000002801D0FFF7C4FF002000BF00BFFFF7C5
:1035C00073FD00F002F80120704780B500F002F8AA
:1035D00001BDFEE70746384600F002F8FBE7FEE7CC
:1035E00080B500BF00BF024A11001820ABBEFBE748
:1035F0002600020053544D6963726F656C656374F5
:10360000726F6E69637300001201000202020040D3
:10361000830440570002010203010000564350207A
:10362000496E7465726661636500000001488047F9
:1036300001480047D132000849360008564350205F
:10364000436F6E666967000000BF00BF00BF00BF28
:10365000FFF7ACFF56313232300D00007631323296
:10366000300D00004E303030310D000004030904ED
:10367000FEE7FEE7FEE7FEE7FEE7FEE7FEE7FEE722
:10368000FEE7FEE7FEE7FEE7FEE7FEE7FEE7FEE712
:10369000FEE7FEE7FEE7FEE7FEE7FEE7FEE7FEE702
:1036A000FEE7FEE7FEE71007FF00000055290008CF
:1036B000BD0412E5041200011003BB2A0008E10456
:1036C0001003872B0008B70413C92C1813C2011B61
:1036D00010050800AB2D0008FD10120108120504AA
:1036E000211012E1041007C7190008551A000875C7
:1036F000081003A31B000829041289041273041084
:103700000748000020E9210008F3041311224011AA
:1037100008122508122F04124304F001081A0300AE
:10372000011003B3230008B50412B70412B9041240
:04373000BB040201D3
:040000050800364970
:00000001FF
